{
  "_format": "hh-sol-artifact-1",
  "contractName": "ToDoList",
  "sourceName": "contracts/ToDoList.sol",
  "abi": [
    {
      "inputs": [],
      "stateMutability": "nonpayable",
      "type": "constructor"
    },
    {
      "anonymous": false,
      "inputs": [
        {
          "indexed": true,
          "internalType": "address",
          "name": "account",
          "type": "address"
        },
        {
          "indexed": true,
          "internalType": "uint256",
          "name": "userId",
          "type": "uint256"
        },
        {
          "indexed": false,
          "internalType": "string",
          "name": "message",
          "type": "string"
        },
        {
          "indexed": false,
          "internalType": "bool",
          "name": "completed",
          "type": "bool"
        }
      ],
      "name": "ToDoEvent",
      "type": "event"
    },
    {
      "inputs": [],
      "name": "_idUser",
      "outputs": [
        {
          "internalType": "uint256",
          "name": "",
          "type": "uint256"
        }
      ],
      "stateMutability": "view",
      "type": "function"
    },
    {
      "inputs": [
        {
          "internalType": "string",
          "name": "_message",
          "type": "string"
        }
      ],
      "name": "createList",
      "outputs": [],
      "stateMutability": "nonpayable",
      "type": "function"
    },
    {
      "inputs": [
        {
          "internalType": "uint256",
          "name": "",
          "type": "uint256"
        }
      ],
      "name": "creators",
      "outputs": [
        {
          "internalType": "address",
          "name": "",
          "type": "address"
        }
      ],
      "stateMutability": "view",
      "type": "function"
    },
    {
      "inputs": [],
      "name": "getAddress",
      "outputs": [
        {
          "internalType": "address[]",
          "name": "",
          "type": "address[]"
        }
      ],
      "stateMutability": "view",
      "type": "function"
    },
    {
      "inputs": [],
      "name": "getCreatorData",
      "outputs": [
        {
          "components": [
            {
              "internalType": "address",
              "name": "account",
              "type": "address"
            },
            {
              "internalType": "uint256",
              "name": "userId",
              "type": "uint256"
            },
            {
              "internalType": "string",
              "name": "message",
              "type": "string"
            },
            {
              "internalType": "bool",
              "name": "completed",
              "type": "bool"
            }
          ],
          "internalType": "struct ToDoList.ToDoListApp[]",
          "name": "",
          "type": "tuple[]"
        }
      ],
      "stateMutability": "view",
      "type": "function"
    },
    {
      "inputs": [],
      "name": "getMessage",
      "outputs": [
        {
          "internalType": "string[]",
          "name": "",
          "type": "string[]"
        }
      ],
      "stateMutability": "view",
      "type": "function"
    },
    {
      "inputs": [
        {
          "internalType": "uint256",
          "name": "",
          "type": "uint256"
        }
      ],
      "name": "message",
      "outputs": [
        {
          "internalType": "string",
          "name": "",
          "type": "string"
        }
      ],
      "stateMutability": "view",
      "type": "function"
    },
    {
      "inputs": [
        {
          "internalType": "uint256",
          "name": "",
          "type": "uint256"
        }
      ],
      "name": "messageId",
      "outputs": [
        {
          "internalType": "uint256",
          "name": "",
          "type": "uint256"
        }
      ],
      "stateMutability": "view",
      "type": "function"
    },
    {
      "inputs": [],
      "name": "ownerOfContract",
      "outputs": [
        {
          "internalType": "address",
          "name": "",
          "type": "address"
        }
      ],
      "stateMutability": "view",
      "type": "function"
    },
    {
      "inputs": [
        {
          "internalType": "uint256",
          "name": "",
          "type": "uint256"
        }
      ],
      "name": "toDoListApps",
      "outputs": [
        {
          "internalType": "address",
          "name": "account",
          "type": "address"
        },
        {
          "internalType": "uint256",
          "name": "userId",
          "type": "uint256"
        },
        {
          "internalType": "string",
          "name": "message",
          "type": "string"
        },
        {
          "internalType": "bool",
          "name": "completed",
          "type": "bool"
        }
      ],
      "stateMutability": "view",
      "type": "function"
    },
    {
      "inputs": [
        {
          "internalType": "uint256",
          "name": "_id",
          "type": "uint256"
        }
      ],
      "name": "toggle",
      "outputs": [],
      "stateMutability": "nonpayable",
      "type": "function"
    }
  ],
  "bytecode": "0x60806040526000805534801561001457600080fd5b5033600160006101000a81548173ffffffffffffffffffffffffffffffffffffffff021916908373ffffffffffffffffffffffffffffffffffffffff160217905550611509806100656000396000f3fe608060405234801561001057600080fd5b50600436106100a95760003560e01c806394432cc51161007157806394432cc514610154578063b30161c614610172578063b8dcc68f146101a5578063cd53d08e146101c1578063ce6d41de146101f1578063d1e8507b1461020f576100a9565b806321e47d46146100ae57806338cc4831146100de578063391c73ff146100fc578063468229ae1461011a578063751ef75314610138575b600080fd5b6100c860048036038101906100c39190610ab8565b61023f565b6040516100d59190610af4565b60405180910390f35b6100e6610263565b6040516100f39190610bff565b60405180910390f35b6101046102f1565b6040516101119190610e00565b60405180910390f35b61012261050b565b60405161012f9190610e31565b60405180910390f35b610152600480360381019061014d9190610ab8565b610531565b005b61015c61057a565b6040516101699190610af4565b60405180910390f35b61018c60048036038101906101879190610ab8565b610580565b60405161019c9493929190610ea5565b60405180910390f35b6101bf60048036038101906101ba9190610f56565b610665565b005b6101db60048036038101906101d69190610ab8565b61085b565b6040516101e89190610e31565b60405180910390f35b6101f961089a565b6040516102069190611065565b60405180910390f35b61022960048036038101906102249190610ab8565b610973565b6040516102369190611087565b60405180910390f35b6004818154811061024f57600080fd5b906000526020600020016000915090505481565b606060028054806020026020016040519081016040528092919081815260200182805480156102e757602002820191906000526020600020905b8160009054906101000a900473ffffffffffffffffffffffffffffffffffffffff1673ffffffffffffffffffffffffffffffffffffffff168152602001906001019080831161029d575b5050505050905090565b60606000805467ffffffffffffffff8111156103105761030f6110a9565b5b60405190808252806020026020018201604052801561034957816020015b610336610a38565b81526020019060019003908161032e5790505b5090506000805b600054811015610502576000600560008381526020019081526020016000206040518060800160405290816000820160009054906101000a900473ffffffffffffffffffffffffffffffffffffffff1673ffffffffffffffffffffffffffffffffffffffff1673ffffffffffffffffffffffffffffffffffffffff168152602001600182015481526020016002820180546103ea90611107565b80601f016020809104026020016040519081016040528092919081815260200182805461041690611107565b80156104635780601f1061043857610100808354040283529160200191610463565b820191906000526020600020905b81548152906001019060200180831161044657829003601f168201915b505050505081526020016003820160009054906101000a900460ff16151515158152505090503373ffffffffffffffffffffffffffffffffffffffff16816000015173ffffffffffffffffffffffffffffffffffffffff16036104ee57808484815181106104d4576104d3611138565b5b602002602001018190525082806104ea90611196565b9350505b5080806104fa90611196565b915050610350565b50819250505090565b600160009054906101000a900473ffffffffffffffffffffffffffffffffffffffff1681565b60006005600083815260200190815260200160002090508060030160009054906101000a900460ff16158160030160006101000a81548160ff0219169083151502179055505050565b60005481565b60056020528060005260406000206000915090508060000160009054906101000a900473ffffffffffffffffffffffffffffffffffffffff16908060010154908060020180546105cf90611107565b80601f01602080910402602001604051908101604052809291908181526020018280546105fb90611107565b80156106485780601f1061061d57610100808354040283529160200191610648565b820191906000526020600020905b81548152906001019060200180831161062b57829003601f168201915b5050505050908060030160009054906101000a900460ff16905084565b600080549050336005600083815260200190815260200160002060000160006101000a81548173ffffffffffffffffffffffffffffffffffffffff021916908373ffffffffffffffffffffffffffffffffffffffff16021790555082826005600084815260200190815260200160002060020191826106e5929190611395565b5060006005600083815260200190815260200160002060030160006101000a81548160ff0219169083151502179055508060056000838152602001908152602001600020600101819055506002339080600181540180825580915050600190039060005260206000200160009091909190916101000a81548173ffffffffffffffffffffffffffffffffffffffff021916908373ffffffffffffffffffffffffffffffffffffffff16021790555060038383909180600181540180825580915050600190039060005260206000200160009091929091929091929091925091826107d0929190611395565b506004819080600181540180825580915050600190039060005260206000200160009091909190915055803373ffffffffffffffffffffffffffffffffffffffff167f97cb199a6fede85e8843b14a3b82273a76130b0e671f8803ce27aa90d52ee11485856000604051610846939291906114a1565b60405180910390a3610856610a1f565b505050565b6002818154811061086b57600080fd5b906000526020600020016000915054906101000a900473ffffffffffffffffffffffffffffffffffffffff1681565b60606003805480602002602001604051908101604052809291908181526020016000905b8282101561096a5783829060005260206000200180546108dd90611107565b80601f016020809104026020016040519081016040528092919081815260200182805461090990611107565b80156109565780601f1061092b57610100808354040283529160200191610956565b820191906000526020600020905b81548152906001019060200180831161093957829003601f168201915b5050505050815260200190600101906108be565b50505050905090565b6003818154811061098357600080fd5b90600052602060002001600091509050805461099e90611107565b80601f01602080910402602001604051908101604052809291908181526020018280546109ca90611107565b8015610a175780601f106109ec57610100808354040283529160200191610a17565b820191906000526020600020905b8154815290600101906020018083116109fa57829003601f168201915b505050505081565b600080815480929190610a3190611196565b9190505550565b6040518060800160405280600073ffffffffffffffffffffffffffffffffffffffff16815260200160008152602001606081526020016000151581525090565b600080fd5b600080fd5b6000819050919050565b610a9581610a82565b8114610aa057600080fd5b50565b600081359050610ab281610a8c565b92915050565b600060208284031215610ace57610acd610a78565b5b6000610adc84828501610aa3565b91505092915050565b610aee81610a82565b82525050565b6000602082019050610b096000830184610ae5565b92915050565b600081519050919050565b600082825260208201905092915050565b6000819050602082019050919050565b600073ffffffffffffffffffffffffffffffffffffffff82169050919050565b6000610b6682610b3b565b9050919050565b610b7681610b5b565b82525050565b6000610b888383610b6d565b60208301905092915050565b6000602082019050919050565b6000610bac82610b0f565b610bb68185610b1a565b9350610bc183610b2b565b8060005b83811015610bf2578151610bd98882610b7c565b9750610be483610b94565b925050600181019050610bc5565b5085935050505092915050565b60006020820190508181036000830152610c198184610ba1565b905092915050565b600081519050919050565b600082825260208201905092915050565b6000819050602082019050919050565b610c5681610a82565b82525050565b600081519050919050565b600082825260208201905092915050565b60005b83811015610c96578082015181840152602081019050610c7b565b60008484015250505050565b6000601f19601f8301169050919050565b6000610cbe82610c5c565b610cc88185610c67565b9350610cd8818560208601610c78565b610ce181610ca2565b840191505092915050565b60008115159050919050565b610d0181610cec565b82525050565b6000608083016000830151610d1f6000860182610b6d565b506020830151610d326020860182610c4d565b5060408301518482036040860152610d4a8282610cb3565b9150506060830151610d5f6060860182610cf8565b508091505092915050565b6000610d768383610d07565b905092915050565b6000602082019050919050565b6000610d9682610c21565b610da08185610c2c565b935083602082028501610db285610c3d565b8060005b85811015610dee5784840389528151610dcf8582610d6a565b9450610dda83610d7e565b925060208a01995050600181019050610db6565b50829750879550505050505092915050565b60006020820190508181036000830152610e1a8184610d8b565b905092915050565b610e2b81610b5b565b82525050565b6000602082019050610e466000830184610e22565b92915050565b600082825260208201905092915050565b6000610e6882610c5c565b610e728185610e4c565b9350610e82818560208601610c78565b610e8b81610ca2565b840191505092915050565b610e9f81610cec565b82525050565b6000608082019050610eba6000830187610e22565b610ec76020830186610ae5565b8181036040830152610ed98185610e5d565b9050610ee86060830184610e96565b95945050505050565b600080fd5b600080fd5b600080fd5b60008083601f840112610f1657610f15610ef1565b5b8235905067ffffffffffffffff811115610f3357610f32610ef6565b5b602083019150836001820283011115610f4f57610f4e610efb565b5b9250929050565b60008060208385031215610f6d57610f6c610a78565b5b600083013567ffffffffffffffff811115610f8b57610f8a610a7d565b5b610f9785828601610f00565b92509250509250929050565b600081519050919050565b600082825260208201905092915050565b6000819050602082019050919050565b6000610fdb8383610cb3565b905092915050565b6000602082019050919050565b6000610ffb82610fa3565b6110058185610fae565b93508360208202850161101785610fbf565b8060005b8581101561105357848403895281516110348582610fcf565b945061103f83610fe3565b925060208a0199505060018101905061101b565b50829750879550505050505092915050565b6000602082019050818103600083015261107f8184610ff0565b905092915050565b600060208201905081810360008301526110a18184610e5d565b905092915050565b7f4e487b7100000000000000000000000000000000000000000000000000000000600052604160045260246000fd5b7f4e487b7100000000000000000000000000000000000000000000000000000000600052602260045260246000fd5b6000600282049050600182168061111f57607f821691505b602082108103611132576111316110d8565b5b50919050565b7f4e487b7100000000000000000000000000000000000000000000000000000000600052603260045260246000fd5b7f4e487b7100000000000000000000000000000000000000000000000000000000600052601160045260246000fd5b60006111a182610a82565b91507fffffffffffffffffffffffffffffffffffffffffffffffffffffffffffffffff82036111d3576111d2611167565b5b600182019050919050565b600082905092915050565b60008190508160005260206000209050919050565b60006020601f8301049050919050565b600082821b905092915050565b60006008830261124b7fffffffffffffffffffffffffffffffffffffffffffffffffffffffffffffffff8261120e565b611255868361120e565b95508019841693508086168417925050509392505050565b6000819050919050565b600061129261128d61128884610a82565b61126d565b610a82565b9050919050565b6000819050919050565b6112ac83611277565b6112c06112b882611299565b84845461121b565b825550505050565b600090565b6112d56112c8565b6112e08184846112a3565b505050565b5b81811015611304576112f96000826112cd565b6001810190506112e6565b5050565b601f8211156113495761131a816111e9565b611323846111fe565b81016020851015611332578190505b61134661133e856111fe565b8301826112e5565b50505b505050565b600082821c905092915050565b600061136c6000198460080261134e565b1980831691505092915050565b6000611385838361135b565b9150826002028217905092915050565b61139f83836111de565b67ffffffffffffffff8111156113b8576113b76110a9565b5b6113c28254611107565b6113cd828285611308565b6000601f8311600181146113fc57600084156113ea578287013590505b6113f48582611379565b86555061145c565b601f19841661140a866111e9565b60005b828110156114325784890135825560018201915060208501945060208101905061140d565b8683101561144f578489013561144b601f89168261135b565b8355505b6001600288020188555050505b50505050505050565b82818337600083830152505050565b60006114808385610e4c565b935061148d838584611465565b61149683610ca2565b840190509392505050565b600060408201905081810360008301526114bc818587611474565b90506114cb6020830184610e96565b94935050505056fea2646970667358221220f94211110bd7c0d4538e99ae2ed0cbf66494b822654de09d80dd146682ae272664736f6c63430008110033",
  "linkReferences": {},
  "deployedLinkReferences": {}
}